:1000000067C007C280C07FC07EC07DC07CC07BC08F
:100010007AC079C078C077C076C075C074C0040358
:100020000904100355005300420020005000520004
:100030004300120110010000000816C027DB000178
:1000400000020001090222000101008032090400BF
:10005000000103010100092101010001223F000705
:1000600005810308000A5374617274696E67206722
:10007000656E65726174696F6E3A2000204E657717
:100080002070617373776F72642073617665642E7C
:100090000005010906A10175019508050719E02968
:1000A000E715002501810295017508810395057505
:1000B0000105081901290591029501750391039520
:1000C000067508150025650507190029658100C01A
:1000D00011241FBECFE5D2E0DEBFCDBF10E0A0E609
:1000E000B0E0ECE8FBE002C005900D92A839B10742
:1000F000D9F710E0A8E9B0E001C01D92AD3DB1070D
:10010000E1F748D441C57CCF85B7826085BF8BB706
:1001100080648BBF8BE48093B3008AE58093B20048
:1001200008951F93DC01162F8091B20084FF07C051
:100130008091B30098E889278093B30003C08AE5D3
:100140008093B200912FE4EBF0E08D918193915078
:100150001916DCF384EB90E0612F44D11C5F1093FF
:10016000B2001F9108951F93CF93DF936091C30056
:10017000635067FDBAC08091C000CCE0D0E0C81BDE
:10018000D109C953DF4F8091BF008D3209F09BC068
:10019000683009F0A8C083EC8093A7008AE58093BB
:1001A0006000109299008881807639F0CE0107D3E3
:1001B000282F8F3F09F476C07CC09A811092B0003E
:1001C0008981882321F41092B10022E064C0853037
:1001D00019F49093C4005EC0863009F047C08B814B
:1001E000813041F482E390E09093C2008093C1009B
:1001F00022E138C0823041F484E490E09093C20060
:100200008093C10022E22EC08330B9F48A81882312
:1002100041F48EE190E09093C2008093C10024E00D
:1002200021C08130F1F08230E1F482E290E09093DD
:10023000C2008093C10020E115C0813241F486E5FF
:1002400090E09093C2008093C10029E00BC08232FD
:1002500041F481E990E09093C2008093C1002FE3C4
:1002600001C020E080E48093990023C0883021F40D
:1002700021E086EC90E011C0893019F49093C6001B
:1002800009C08A3011F421E006C08B3019F48BE4E8
:100290008093B30020E080EB90E09093C2008093C5
:1002A000C10007C0888187FD2E8180E88093990076
:1002B00006C08F81882319F48E81821708F0822F5F
:1002C0008093610010C08091990087FF0CC0CE011F
:1002D00002D48F3F21F48EE18093600004C0882314
:1002E00011F0109261001092C3008091600084FFB1
:1002F00049C0809161008F3F09F444C0182F8930B4
:1003000008F018E0811B809361008091A70098E8B5
:1003100089278093A700112341F12091C1003091DA
:10032000C2008091990086FF0DC0A8EAB0E080E08D
:1003300090E0F901E80FF91FE491ED930196181789
:10034000C1F708C0912FD901E8EAF0E08D918193BF
:100350009150E1F71150812F90E01F5F0196820FBD
:10036000931F9093C2008093C10088EA90E0612FB0
:1003700039D0612F6C5F6C3019F08FEF8093610082
:100380006093600094E186B3887131F49150D9F79D
:100390001092C4001092BE0010E0992309F411E0FD
:1003A00080919800811729F0112309F453D21093FA
:1003B0009800DF91CF911F910895A82FB92F80E069
:1003C00090E041E050EA609530E009C02D9182272D
:1003D0009795879510F084279527305EC8F36F5F57
:1003E000A8F30895EADF8D939D930895A6E08827EA
:1003F0009927AA9569F00197E1F3B399FCCFB39BD4
:10040000FECF81E09927A6B3019611F0A871D9F724
:100410000895CF93CFB7CF93C395B39BE9F7B39B21
:100420000BC0B39B09C0B39B07C0B39B05C0B39B74
:1004300003C0B39B01C0D5C00F92DF93C091C00031
:10044000DD27C953DF4F012EB39B03C0DF910F900F
:10045000E6CF2F930F931F934F932FEF4F6F06B35A
:1004600003FB20F95F933F9350E03BE065C016B378
:100470000126502953FDC89556B3012703FB25F9E2
:100480002F7306B3B1F05027102713FB26F906B2DD
:100490002230F0F000C016B3012703FB27F9012634
:1004A000502906B22430E8F54F77206816B30000D3
:1004B000F6CF50274F7D206206B2102F000000C0FB
:1004C00006B300265029102713FB26F906B2E2CF07
:1004D0004F7B06B3206400C0DACF01265029187183
:1004E00006B269F14E7F2160012F16B328C00026A5
:1004F00050294D7F06B22260102F29C001265029B5
:100500004B7F06B22460012F2DC016B3012650295F
:10051000477F2860000006B22EC04F7E06B32061E0
:1005200030C0422706B3499300265029102706B24F
:100530004FEF13FB20F9297F16B379F2187159F1A7
:100540000126502906B2012703FB21F9237F06B3B8
:1005500071F2002650293150D0F006B2102713FB5B
:1005600022F9277E16B351F201265029012703FBF9
:1005700006B223F92F7C49F2000006B3102713FBC3
:1005800024F90026502906B22F7939F270CF10E4F1
:100590001ABF002719C03B503195C31BD04010E44F
:1005A0001ABF0881033C09F10B34F9F02091BE0019
:1005B0001981110F1213EDCF4A81441F093651F1F1
:1005C0000D3211F0013E29F70093C5003F915F9174
:1005D0004F911F910F912F91DF910F90CAB7C6FDD8
:1005E0001BCFCF91CFBFCF9118952091C50022236B
:1005F00069F31091C300112379F534307AF1309307
:10060000C3002093BF001091C0003BE0311B30932A
:10061000C00024C00091C3000130F4F40AE54F701B
:1006200049F43091600034FD1AC000936000C7EABD
:10063000D0E019C03091B20034FD11C00093B20077
:10064000C3EBD0E010C0052710E000C021C0052793
:1006500010E0C89508BB14C03AE501C032ED032E86
:10066000C0E0D0E032E017B31861C39A08B317BBFB
:1006700058E120E84FEF20FF052708BB2795179585
:100680001C3F28F700004552B0F720FF05272795AB
:1006900008BB17951C3FB8F629913A9561F7077E7C
:1006A0001091C400110F08BBC250D04011F010933C
:1006B000BE0010E41ABF086017B3177E402F477EB4
:1006C00054E05A95F1F708BB17BB48BB7FCF809128
:1006D0009B00882359F080919A00843338F4E82FE6
:1006E000F0E0EE59FF4FE081EE2331F410929E00CE
:1006F0001092A00080E0089590919700992309F44A
:1007000051C08F5F80939A008E2F80538A3048F4B7
:1007100010929E00E03311F487E23FC08E2F835188
:100720003CC08E2F81568A3138F4809196008270B9
:1007300080939E00ED550EC08E2F81548A3168F44F
:100740008091960081FD02C082E001C080E080932C
:100750009E00ED53E093A00029C010929E001092DD
:10076000A000ED32A9F0EE3248F4E03299F0E13227
:10077000E8F4E93089F0EA30C9F412C0EE3219F039
:10078000EF35A1F402C087E308C082E080939E00A9
:100790008DE203C08CE201C08BE28093A00006C012
:1007A00088E2FBCF10929E001092A000109297005A
:1007B000992319F481E08093970081E00895FC016A
:1007C00080818076803261F581818230E1F08330F2
:1007D00018F4813029F505C0893079F08A3001F5A7
:1007E0001AC08EE990E09093C2008093C1001092ED
:1007F0009E001092A00088E008958681978101975D
:1008000079F48FEF089586EA90E09093C200809388
:10081000C10081E0089583818093A60080E008955F
:1008200080E0089582B76EE361D19A3118F4892F80
:100830008F590895943318F4892F895D08959E3354
:1008400018F4892F845008959E3311F08FE5089590
:100850008DE20895DF92EF92FF920F931F93CF9353
:10086000DF9300E080E8D82EEE24FF241D2D100F2A
:1008700011BFBCDDEC0189E0C433D8070CF0102FA8
:10088000D6940894E11CF11C88E0E816F10411F0FC
:10089000012FECCF115011BF1F5FE12EFF240894F0
:1008A000E11CF11C13C0A2DD9C012453394037FF29
:1008B00003C0309521953F4F2C173D0714F09E0142
:1008C00001C011B781B78F5F81BFE90181B790E0A7
:1008D000E816F90644F711BF61B780E090E02BD12C
:1008E000DF91CF911F910F91FF90EF90DF900895CE
:1008F000CF92DF92EF92FF920F931F93CF93DF93EC
:10090000CFE0D7E2CC24DD24DD2011F010E801C0D7
:1009100010E040E050E000E4EE24FF24445359404E
:1009200014F4100F01C0101B11BF60DD9C01AC015D
:1009300089E02533380714F0C90104C088279927B6
:10094000821B930B845399408C179D076CF489E0AC
:100950002533380714F0E90104C0CC27DD27C21B7A
:10096000D30BC453D940C12E06950894E11CF11C49
:1009700087E0E816F10491F6D39482E0D81621F6C8
:10098000C1BEDF91CF911F910F91FF90EF90DF904B
:10099000CF90089582E690E060E070E044E350E09C
:1009A000BAD010929A0081E080939B00EEE9F0E0CB
:1009B000119280E0E63AF807D9F72EE088E190E05E
:1009C0000FB6F894A89581BD0FBE21BD9DDBBB9AE3
:1009D00020E04AE350E2A895CA010197F1F72F5FA2
:1009E0002A3FC9F7BB9883B7826083BF7894A895E4
:1009F000BADB8091B20084FFFACF80919B008130F6
:100A0000B1F7809196008F3F91F361DE80939B0058
:100A10008EE990E068E085DBEACF1F9380919C002F
:100A200010919D008823C1F41F5F10939D00115009
:100A3000143008F44EC010929D0011E010939C00F9
:100A400082E690E066E670E046E150E05BD010920E
:100A50009A0010939B003DC0E5DEE12FF0E0EE59D7
:100A6000FF4F8083912F9F5F90939D00923320F4DE
:100A70008091960080FF2DC08091960082FF09C072
:100A8000E92FF0E0EE59FF4F8AE080839F5F90935B
:100A90009D0040919D00E42FF0E0EE59FF4F108241
:100AA0004F5F40939D0082E690E060E070E050E090
:100AB00054D082E690E06CE770E045E150E022D04F
:100AC00010929A0081E080939B0010929D001092FA
:100AD0009C001F910895FC01E08180919600E81729
:100AE00019F0E093960099DF81E00895991B79E071
:100AF00004C0991F961708F0961B881F7A95C9F7AE
:100B000080950895FB01DC0102C005900D924150D3
:100B10005040D8F70895DC01CB01FC01E199FECFEC
:100B200006C0FFBBEEBBE09A31960DB20D9241506C
:100B30005040B8F70895262FE199FECF9FBB8EBB9A
:100B4000E09A01970DB2021639F01CBA2DBB0FB610
:100B5000F894E29AE19A0FBE0895DC01CB0102C03D
:100B60002D9105D041505040D8F70895262FE19996
:100B7000FECF1CBA9FBB8EBB2DBB0FB6F894E29A7A
:0C0B8000E19A0FBE01960895F894FFCF93
:100B8C005AFF000000000000000000000000000000
:100B9C000000000000000000000000000000000049
:100BAC000000000000000000000000000000000039
:080BBC00000000000000FF0131
:00000001FF
